{
  "contractName": "Bankofsecrets",
  "abi": [
    {
      "anonymous": false,
      "inputs": [
        {
          "indexed": false,
          "internalType": "string",
          "name": "key",
          "type": "string"
        },
        {
          "indexed": false,
          "internalType": "address",
          "name": "add",
          "type": "address"
        }
      ],
      "name": "SecretMgr",
      "type": "event"
    },
    {
      "inputs": [],
      "name": "num",
      "outputs": [
        {
          "internalType": "uint256",
          "name": "",
          "type": "uint256"
        }
      ],
      "stateMutability": "view",
      "type": "function",
      "constant": true
    },
    {
      "inputs": [
        {
          "internalType": "address",
          "name": "",
          "type": "address"
        },
        {
          "internalType": "string",
          "name": "",
          "type": "string"
        }
      ],
      "name": "secretManager",
      "outputs": [
        {
          "internalType": "string",
          "name": "",
          "type": "string"
        }
      ],
      "stateMutability": "view",
      "type": "function",
      "constant": true
    },
    {
      "inputs": [
        {
          "internalType": "string",
          "name": "key",
          "type": "string"
        },
        {
          "internalType": "string",
          "name": "data",
          "type": "string"
        }
      ],
      "name": "addSecret",
      "outputs": [
        {
          "internalType": "uint256",
          "name": "",
          "type": "uint256"
        }
      ],
      "stateMutability": "nonpayable",
      "type": "function"
    },
    {
      "inputs": [
        {
          "internalType": "string",
          "name": "key",
          "type": "string"
        }
      ],
      "name": "getSecret",
      "outputs": [
        {
          "internalType": "string",
          "name": "",
          "type": "string"
        }
      ],
      "stateMutability": "view",
      "type": "function",
      "constant": true
    }
  ],
  "bytecode": "0x6080604052600a60015534801561001557600080fd5b50610aba806100256000396000f3fe608060405234801561001057600080fd5b506004361061004c5760003560e01c80634e70b1dc14610051578063563a66db1461006f5780637a4aec881461009f578063cf11070f146100cf575b600080fd5b6100596100ff565b604051610066919061037a565b60405180910390f35b610089600480360381019061008491906104ef565b610105565b60405161009691906105c0565b60405180910390f35b6100b960048036038101906100b49190610640565b6101f1565b6040516100c691906105c0565b60405180910390f35b6100e960048036038101906100e4919061069c565b6102b4565b6040516100f6919061037a565b60405180910390f35b60015481565b60606000803373ffffffffffffffffffffffffffffffffffffffff1673ffffffffffffffffffffffffffffffffffffffff168152602001908152602001600020826040516101539190610750565b9081526020016040518091039020805461016c90610796565b80601f016020809104026020016040519081016040528092919081815260200182805461019890610796565b80156101e55780601f106101ba576101008083540402835291602001916101e5565b820191906000526020600020905b8154815290600101906020018083116101c857829003601f168201915b50505050509050919050565b60006020528160005260406000208180516020810182018051848252602083016020850120818352809550505050505060009150915050805461023390610796565b80601f016020809104026020016040519081016040528092919081815260200182805461025f90610796565b80156102ac5780601f10610281576101008083540402835291602001916102ac565b820191906000526020600020905b81548152906001019060200180831161028f57829003601f168201915b505050505081565b6000816000803373ffffffffffffffffffffffffffffffffffffffff1673ffffffffffffffffffffffffffffffffffffffff168152602001908152602001600020846040516103039190610750565b9081526020016040518091039020908161031d9190610973565b507f3f677a3ef6725264acdaaf3268dd152dc14949be1cdd345f5979280c3ff62ce7833360405161034f929190610a54565b60405180910390a16000905092915050565b6000819050919050565b61037481610361565b82525050565b600060208201905061038f600083018461036b565b92915050565b6000604051905090565b600080fd5b600080fd5b600080fd5b600080fd5b6000601f19601f8301169050919050565b7f4e487b7100000000000000000000000000000000000000000000000000000000600052604160045260246000fd5b6103fc826103b3565b810181811067ffffffffffffffff8211171561041b5761041a6103c4565b5b80604052505050565b600061042e610395565b905061043a82826103f3565b919050565b600067ffffffffffffffff82111561045a576104596103c4565b5b610463826103b3565b9050602081019050919050565b82818337600083830152505050565b600061049261048d8461043f565b610424565b9050828152602081018484840111156104ae576104ad6103ae565b5b6104b9848285610470565b509392505050565b600082601f8301126104d6576104d56103a9565b5b81356104e684826020860161047f565b91505092915050565b6000602082840312156105055761050461039f565b5b600082013567ffffffffffffffff811115610523576105226103a4565b5b61052f848285016104c1565b91505092915050565b600081519050919050565b600082825260208201905092915050565b60005b83811015610572578082015181840152602081019050610557565b83811115610581576000848401525b50505050565b600061059282610538565b61059c8185610543565b93506105ac818560208601610554565b6105b5816103b3565b840191505092915050565b600060208201905081810360008301526105da8184610587565b905092915050565b600073ffffffffffffffffffffffffffffffffffffffff82169050919050565b600061060d826105e2565b9050919050565b61061d81610602565b811461062857600080fd5b50565b60008135905061063a81610614565b92915050565b600080604083850312156106575761065661039f565b5b60006106658582860161062b565b925050602083013567ffffffffffffffff811115610686576106856103a4565b5b610692858286016104c1565b9150509250929050565b600080604083850312156106b3576106b261039f565b5b600083013567ffffffffffffffff8111156106d1576106d06103a4565b5b6106dd858286016104c1565b925050602083013567ffffffffffffffff8111156106fe576106fd6103a4565b5b61070a858286016104c1565b9150509250929050565b600081905092915050565b600061072a82610538565b6107348185610714565b9350610744818560208601610554565b80840191505092915050565b600061075c828461071f565b915081905092915050565b7f4e487b7100000000000000000000000000000000000000000000000000000000600052602260045260246000fd5b600060028204905060018216806107ae57607f821691505b6020821081036107c1576107c0610767565b5b50919050565b60008190508160005260206000209050919050565b60006020601f8301049050919050565b600082821b905092915050565b6000600883026108297fffffffffffffffffffffffffffffffffffffffffffffffffffffffffffffffff826107ec565b61083386836107ec565b95508019841693508086168417925050509392505050565b6000819050919050565b600061087061086b61086684610361565b61084b565b610361565b9050919050565b6000819050919050565b61088a83610855565b61089e61089682610877565b8484546107f9565b825550505050565b600090565b6108b36108a6565b6108be818484610881565b505050565b5b818110156108e2576108d76000826108ab565b6001810190506108c4565b5050565b601f821115610927576108f8816107c7565b610901846107dc565b81016020851015610910578190505b61092461091c856107dc565b8301826108c3565b50505b505050565b600082821c905092915050565b600061094a6000198460080261092c565b1980831691505092915050565b60006109638383610939565b9150826002028217905092915050565b61097c82610538565b67ffffffffffffffff811115610995576109946103c4565b5b61099f8254610796565b6109aa8282856108e6565b600060209050601f8311600181146109dd57600084156109cb578287015190505b6109d58582610957565b865550610a3d565b601f1984166109eb866107c7565b60005b82811015610a13578489015182556001820191506020850194506020810190506109ee565b86831015610a305784890151610a2c601f891682610939565b8355505b6001600288020188555050505b505050505050565b610a4e81610602565b82525050565b60006040820190508181036000830152610a6e8185610587565b9050610a7d6020830184610a45565b939250505056fea26469706673582212201e2d744c3b4ed07433b219274c2dbd0ce3051ad8b47ff8630732000dbcebf7a764736f6c634300080f0033",
  "immutableReferences": {},
  "source": "pragma solidity >= 0.6.0 < 0.9.0;\r\n\r\ncontract Bankofsecrets{\r\n    mapping(address=>mapping(string=>string)) public secretManager;\r\n    event SecretMgr(string key,address add);\r\n    uint public num=10;\r\n\r\n\r\n    function addSecret(string memory key,string memory data)public returns(uint){\r\n        secretManager[msg.sender][key]=data;\r\n        emit SecretMgr(key,msg.sender);\r\n        return 0;\r\n    }\r\n    function getSecret(string memory key)public view returns(string memory){\r\n        return secretManager[msg.sender][key];\r\n\r\n    }\r\n   \r\n}",
  "sourcePath": "C:\\Users\\ACER\\Desktop\\BankofSecrets\\contracts\\Bankofsecrets.sol",
  "compiler": {
    "name": "solc",
    "version": "0.8.15+commit.e14f2714.Emscripten.clang"
  },
  "schemaVersion": "3.4.4",
  "updatedAt": "2022-06-20T06:45:49.330Z",
  "networkType": "ethereum",
  "devdoc": {
    "kind": "dev",
    "methods": {},
    "version": 1
  },
  "userdoc": {
    "kind": "user",
    "methods": {},
    "version": 1
  }
}